:100000000C94BC030C94E4030C94E4030C94E403FC
:100010000C94E4030C94E4030C94E4030C94E403C4
:100020000C94E4030C94E4030C94E4030C94E403B4
:100030000C94E4030C94E4030C94E4030C94E403A4
:100040000C94750D0C94E4030C94E4030C94E403F9
:100050000C94E4030C94E4030C94E4030C94E40384
:100060000C94E4030C94E40301050800FF0601214D
:10007000023520FFFF07FF06FF09005022165680B9
:100080008080800080153353A0A0A00257575050A5
:10009000F850F850500257572070A0702870201365
:1000A000355580A040A02002475740A0A040A0A006
:1000B00050251353808080122656408080808040D7
:1000C0001226568040404040800245559060F060C6
:1000D000900255552020F8202011335360408004B1
:1000E0004151F011335340E0400246561010204079
:1000F000808012365640A0A0A0A04012365640C0C4
:10010000404040E00246566090106080F002465643
:10011000F020601090600246562060A0F02020027F
:100120004656F080E01090600246566080E0909065
:1001300060024656F0102020404002465660906013
:10014000909060024656609090701060122555C0E5
:10015000C000C0C011365660600060408012365644
:10016000204080804020034353F000F01236568038
:10017000402020408012365640A0204000400158C8
:1001800058304898A8A8904030024656609090F0A9
:100190009090024656E090E09090E00246566090C3
:1001A00080809060024656E090909090E002465623
:1001B000F080E08080F0024656F080E0808080028F
:1001C0004656609080B090600246569090F09090B5
:1001D00090123656E040404040E0024656702020E3
:1001E00020A04002465690A0C0A0A0900246568093
:1001F00080808080F002465690F0F0909090024609
:100200005690D0F0B0B090024656609090909060BA
:10021000024656E09090E08080014757609090D071
:10022000B06010024656E09090E090900246566012
:100230009040209060123656E040404040400246D8
:10024000569090909090600246569090909060608A
:10025000024656909090F0F0900246569090606062
:100260009090025656888850202020024656F01062
:10027000204080F0123656E080808080E0024656B2
:10028000808040201010123656E020202020E016FA
:10029000325240A0014151F0162252804002445493
:1002A000709090700246568080E09090E012345436
:1002B0006080806002465610107090907002445426
:1002C00060B0C060024656205040E04040014555B5
:1002D00060907010600246568080E09090901236D8
:1002E000564000C04040E01137572000202020A099
:1002F00040024656808090E09090123656C04040B2
:100300004040E0025454D0A8A8A8024454E0909081
:100310009002445460909060014555E090E08080E8
:100320000145557090701010024454A0D080801286
:10033000345460C020C00246564040E04050200285
:10034000445490909070123454A0A0A04002545491
:1003500088A8A85002445490606090014555909040
:10036000709060024454F02040F002475730402023
:10037000C0204030221656808080808080024757FF
:10038000C02040304020C006425250A0FFFFFFFF77
:10039000FFFFFFFFFFFFFFFFFFFFFFFFFFFFFFFF6D
:1003A000FFFFFFFFFFFFFFFFFFFFFFFFFF09005001
:1003B0002216568000808080800146562070A0A0C2
:1003C00070200246562050E04050A00255558870DB
:1003D0005070880256568850F820F820221757800F
:1003E0008080008080800247577080E0907010E02D
:1003F000173151A002565670A8C8C8A870143555B8
:1004000060A06000E003435350A050123353E0203B
:1004100020143151E002565670E8D8E8D8701731F0
:1004200051E015335340A04012355540E04000E004
:1004300014355540A02040E0143555C020C020C0E0
:100440001622524080014555909090E08002565609
:1004500078E8E8682828241151801122524080143D
:10046000355540C04040E014355540A04000E00301
:100470004353A050A0024757808080A060F0200224
:1004800047578080A0D0102070024757804080607E
:10049000A0F02012365640004080A040024757404E
:1004A000206090F0909002475720406090F090902C
:1004B00002475760906090F0909002475750A060BC
:1004C00090F0909002475790006090F09090024713
:1004D0005760906090F0909002465670A0A0F0A0F7
:1004E000B00147576090808090604002475740209D
:1004F000F080E080F00247572040F080E080F0027A
:1005000047576090F080E080F00247579000F080FD
:10051000E080F01237578040E0404040E01237570B
:100520002040E0404040E012375740A0E0404040CB
:10053000E0123757A000E0404040E00256567048B5
:10054000E848487002475750A090D0B090900247BA
:1005500057402060909090600247572040609090F4
:1005600090600247576090609090906002475750AB
:10057000A0609090906002475790006090909060CB
:10058000123353A040A002465670B0B0D0D0E00263
:10059000475740209090909060024757204090909D
:1005A00090906002475760909090909060024757FB
:1005B0009000909090906002575710208850202013
:1005C0002002465680E09090E0800246566090A05F
:1005D000A090A002475740200070909070024757AB
:1005E000204000709090700247572050007090900B
:1005F0007002475750A0007090907002465650000D
:1006000070909070024757609060709090700254A4
:1006100054F068B0781135556080806040024757CB
:1006200040200060B0C06002475720400060B0C06A
:100630006002475760900060B0C0600246565000AC
:1006400060B0C060123757804000C04040E01237B1
:1006500057204000C04040E012375740A000C04043
:1006600040E0123656A000C04040E0024757A0408C
:10067000A01070906002475750A000E09090900248
:10068000475740200060909060024757204000602C
:1006900090906002475760900060909060024757CA
:1006A00050A000609090600246569000609090606C
:1006B0001235554000E0004002445470B0D0E002D2
:1006C000475740200090909070024757204000907C
:1006D000909070024757609000909090700246563C
:1006E0009000909090700148582040009090709039
:1006F000600147578080E090E0808001475790007C
:100700009090709060FFD0FFE0FFC1FFD13FC0FF2D
:1007100014FFD23FC0FF14FFD0FFFE0000000024F2
:100720000027002A0000000000250028002B000000
:10073000000000230026002900040404040404042B
:100740000402020202020203030303030301020480
:100750000810204080010204081020010204081043
:100760002000000008000201000003040700000050
:10077000000000000000F71011241FBECFEFD8E0EA
:10078000DEBFCDBF11E0A0E0B1E0ECE1FAE202C0D3
:1007900005900D92A234B107D9F723E0A2E4B1E0AD
:1007A00001C01D92A43CB207E1F713E0CCEBD3E00B
:1007B00004C02197FE010E94F112CB3BD107C9F77B
:1007C0000E94BF0D0C940C150C9400000895AF927C
:1007D000BF92CF92DF92EF92FF920F931F93CF932E
:1007E000DF936C017B018B01040F151FEB015E0190
:1007F000AE18BF08C017D10759F06991D601ED9125
:10080000FC910190F081E02DC6010995892B79F7C3
:10081000C501DF91CF911F910F91FF90EF90DF9075
:10082000CF90BF90AF900895833081F028F481304D
:1008300099F08230A9F008958730A9F08830C9F086
:100840008430B1F4809180008F7D03C0809180005E
:100850008F7780938000089584B58F7784BD089545
:1008600084B58F7DFBCF8091B0008F778093B000EF
:1008700008958091B0008F7DF9CFCF93DF93282F1B
:1008800030E0F901EF59F84F8491F901E35BF84F3B
:10089000D491F901E75CF84FC491CC23A1F0811108
:1008A0000E941404EC2FF0E0EE0FFF1FE15DF84F03
:1008B000A591B491EC91ED2381E090E009F480E002
:1008C000DF91CF91089580E090E0FACF1F93CF930E
:1008D000DF93282F30E0F901EF59F84F8491F901A7
:1008E000E35BF84FD491F901E75CF84FC491CC2356
:1008F000A9F0162F81110E941404EC2FF0E0EE0FE6
:10090000FF1FEB5DF84FA591B4918FB7F894EC9170
:10091000111108C0D095DE23DC938FBFDF91CF91FA
:100920001F910895DE2BF8CFCF93DF9390E0FC0169
:10093000E35BF84F2491875C984FFC0184918823F6
:10094000D1F090E0880F991FFC01E55EF84FA5916A
:10095000B491FC01EB5DF84FC591D49161110EC0CB
:100960009FB7F8948C91E22FE0958E238C93288189
:10097000E223E8839FBFDF91CF9108958FB7F8946A
:10098000EC91E22BEC938FBFF6CF3FB7F8948091B8
:10099000E0019091E101A091E201B091E30126B55F
:1009A000A89B05C02F3F19F00196A11DB11D3FBFA7
:1009B000BA2FA92F982F8827BC01CD01620F711D76
:1009C000811D911D42E0660F771F881F991F4A9570
:1009D000D1F708958F929F92AF92BF92CF92DF92FC
:1009E000EF92FF924B015C010E94C5046B017C01F8
:1009F0000E94C5046C197D098E099F09683E7340E9
:100A000081059105A8F321E0821A9108A108B10897
:100A100088EEC80E83E0D81EE11CF11C81149104FD
:100A2000A104B10429F7FF90EF90DF90CF90BF9021
:100A3000AF909F908F9008950895DC011696ED91E8
:100A4000FC91179712968C91481B477081E090E0BB
:100A500001C0880F4A95EAF7E60FF11D3081222385
:100A600019F0832B8083089580958323FBCFFB01AE
:100A70004181DC0112962C911297421768F013966F
:100A80002C911397241740F0608115962C916217D2
:100A900018F424810C941D050895FC018081928135
:100AA000980F92832181921760F494819F5F9483C1
:100AB0009381890F821710F08FEF820F838381E07B
:100AC000089580E00895FC01128280818150838323
:100AD00014820895DB01ED91FC9109940F931F930B
:100AE000CF93DF931F92CDB7DEB7009188031091AB
:100AF0008903E091B703F091B80382E0099530E0F3
:100B000020E04AE0B80186E893E00E946A05182FC9
:100B1000E091B703F091B80383E00995E091B70342
:100B2000F091B80380E009951123B9F16091880331
:100B3000709189039E012F5F3F4F46E486E893E062
:100B40000E946A0589818093860360918803709171
:100B500089039E012F5F3F4F47E486E893E00E94A0
:100B60006A05898180938703609188037091890366
:100B700030E020E048E486E893E00E946A05809334
:100B80009103609188037091890329EB33E047E179
:100B900086E893E00E946A0511E0812F0F90DF91B3
:100BA000CF911F910F910895CF93DF938091BF0351
:100BB000811105C081E08093BF030E946E05C09142
:100BC0008803D0918903E091B703F091B80382E0E4
:100BD0000995E091B703F091B80381E0099530E001
:100BE00020E044E1BE0186E893E00E946A0529EB1B
:100BF00033E047E1BE0186E893E00E946A05E09198
:100C0000B703F091B80380E0DF91CF910994EF92A0
:100C1000FF920F931F93CF93DF93082F162FC42FAC
:100C2000D42FF82EF40EEE24EA948F2D8D1BD8309D
:100C300080F58C2F887F800F9C2F969596959695A2
:100C400028EF929FC00D1124CC23C1F197E0C92752
:100C500060918803709189038093A2031093A3038A
:100C60001092A503CF5FC7708FEF90E001C0880F8F
:100C7000CA95EAF78093A40322EA33E04BE386E8BF
:100C800093E0DF91CF911F910F91FF90EF900C9423
:100C90006A0560918803709189038093A203109381
:100CA000A3031092A503E092A40322EA33E04BE3EE
:100CB00086E893E00E946A05D850B7CFDF91CF91C4
:100CC0001F910F91FF90EF9008950F931F93CF9373
:100CD000DF93182FC62F042FD62FD20F402F6C2F43
:100CE000812F0E940706CF5FCD13F8CFDF91CF9100
:100CF0001F910F910895DF92EF92FF920F931F9330
:100D0000CF93DF93182F062FC42FD42FF62EF40E77
:100D1000EE24E394DD24DA948F2D8D1BD83090F5EA
:100D20008C2F887F800F9C2F96959695969528EF0F
:100D3000929FC00D1124CC23D1F197E0C927609177
:100D40008803709189031093A2038093A30381E029
:100D50008093A503CF5FC7708FEF90E001C0880F2D
:100D6000CA95EAF78093A40322EA33E04BE386E8CE
:100D700093E0DF91CF911F910F91FF90EF90DF9063
:100D80000C946A0560918803709189031093A20303
:100D90008093A303E092A503D092A40322EA33E058
:100DA0004BE386E893E00E946A05D850B5CFDF9107
:100DB000CF911F910F91FF90EF90DF9008950F93C7
:100DC0001F93CF93E0919403F0919503309719F01E
:100DD00086E893E009950091880310918903E091DA
:100DE000B703F091B80382E00995E091B703F09161
:100DF000B80381E0099530E020E045E1B80186E8DC
:100E000093E00E946A05C82F882341F029EB33E064
:100E100047E1B80186E893E00E946A05E091B703D4
:100E2000F091B80380E009958C2FCF911F910F911D
:100E3000089580E008950B96FC01849108950A9628
:100E4000FC0184910895FC01849108950E94230778
:100E5000882321F0823011F083E0089586E0089520
:100E6000FC01E60FF11D849190E0982F88273196C0
:100E7000E4918E0F911D089568E00C94300766E0B0
:100E80000C9430072EE93FE0009709F40895F9012A
:100E90003197F1F70197F8CF90E0FC01EE0FFF1FBB
:100EA000E553FE4F0190F081E02D8D539E4FDC0104
:100EB0008C919081662319F0892B80830895809509
:100EC0008923FBCF860F911DFC0183A18F3F19F071
:100ED000642F0C94660408950F931F93CF938C0195
:100EE000C62F8FB78093C201F894617080E00E9492
:100EF0004C07C1FB662760F981E00E944C07C2FBEA
:100F0000662760F982E00E944C07C3FB662760F900
:100F100083E00E944C07C4FB662760F984E00E94CE
:100F20004C07C5FB662760F985E00E944C07C6FBAD
:100F3000662760F986E00E944C076C2F661F6627C3
:100F4000661F87E00E944C078091C2018FBF41E07D
:100F500064E0C8010E94620784E090E00197F1F725
:100F600040E064E0C8010E94620788E290E0FC0172
:100F70003197F1F70197F1F7CF911F910F910895F4
:100F8000EF92FF921F93CF93DF93EC01142F79011F
:100F90006150673008F0E6C0E62FF0E0EE52F84FFF
:100FA0000C94F112D907ED08B908EF08D308DE0850
:100FB000EA0888A590E0FC01E75CF84FE491F0E0D6
:100FC000EE0FFF1FEB5DF84F259134913093CC016C
:100FD0002093CB01FC01E35BF84FE491E093C30164
:100FE00089A590E0FC01E75CF84FE491F0E0EE0F9A
:100FF000FF1FEB5DF84F259134913093CE01209384
:10100000CD01FC01E35BF84FE491E093C4018AA5B4
:1010100090E0FC01E75CF84FE491F0E0EE0FFF1F79
:10102000EB5DF84F259134913093D0012093CF019F
:10103000FC01E35BF84FE491E093C5018BA590E0E0
:10104000FC01E75CF84FE491F0E0EE0FFF1FEB5D71
:10105000F84F259134913093D2012093D101FC01B6
:10106000E35BF84FE491E093C6018CA590E0FC01AE
:10107000E75CF84FE491F0E0EE0FFF1FEB5DF84FF7
:10108000259134913093D4012093D301FC01E35B8B
:10109000F84FE491E093C7018DA590E0FC01E75C77
:1010A000F84FE491F0E0EE0FFF1FEB5DF84F259154
:1010B00034913093D6012093D501FC01E35BF84FC6
:1010C000E491E093C8018EA590E0FC01E75CF84F45
:1010D000E491F0E0EE0FFF1FEB5DF84F25913491A6
:1010E0003093D8012093D701FC01E35BF84FE491E2
:1010F000E093C9018FA590E0FC01E75CF84FE49113
:10110000F0E0EE0FFF1FEB5DF84F25913491309327
:10111000DA012093D901FC01E35BF84FE491E093FD
:10112000CA0188A98F3F41F061E00E94940440E029
:101130006DE0CE010E9462077E0183E2E80EF11CA1
:10114000E096F70181917F018F3F49F061E00E94B5
:10115000940461E0F701319780810E946604CE1506
:10116000DF0579F781E0DF91CF911F91FF90EF903C
:10117000089541E0112319F0113059F440E062E084
:10118000CE010E94620741E063E0CE010E94620747
:10119000E9CF41E0123009F040E062E0CE010E9468
:1011A000620740E0F1CF642F0E946C07DBCFF701AC
:1011B00061917F01CE010E946C0711501111F7CF90
:1011C000D1CFF7016491CE010E946C07FFEFEF1AB7
:1011D000FF0A11501111F5CFC5CF61E0D6CF8BA119
:1011E0008F3F09F4BFCF60E0D0CFDB011496ED91C3
:1011F000FC9130E020E065E00994DB011496ED916C
:10120000FC9130E020E062E00994DB011496ED915E
:10121000FC9130E020E063E009949F92AF92BF928E
:10122000CF92DF92EF92FF920F931F93CF93DF93B2
:101230007C018B01942E69018AE0481739F195E110
:10124000491709F486C0F801C281D381F2E39F16E1
:1012500009F431C1F91508F4D3C085E1981609F4F1
:101260002FC197E1991609F43BC1A4E19A12F7C086
:10127000EE81FF818D818E0F9F2F911D11928E1710
:101280009F07E1F7CE010E946305E9C0DB011496D8
:10129000ED91FC9130E020E04FEF61E0C70109954E
:1012A00080E095E0A92E97E0B92EF501C491811157
:1012B00010C081E0CF3F49F04C2FB801C7010E9418
:1012C000F508882309F4BFCF80E0BFEFAB1ABB0A53
:1012D000ECCF4FEFCF3F89F3CE3F09F4B4CFC03FFF
:1012E00098F7C03E38F04C2F4F70B801C7010E94EC
:1012F000FD08EACFC03D38F04C2F4F70B801C70150
:101300000E940509E1CFC03CF8F0D8011496ED9198
:10131000FC9130E020E040E064E0C7010995C2950F
:10132000C07FCE5FD0E0CE010E944207D801149664
:10133000ED91FC9130E020E041E064E0C7010995C7
:10134000CE010E944207C0CFC7FDBECF8C2F90E0D8
:10135000F8CFFB01C281D38140E0C7010E94FD08A4
:1013600042E0B801C7010E9405094C81486BB801F1
:10137000C7010E94F50840E4B801C7010E94F508C2
:1013800041E0B801C7010E94FD082E813F81D801CC
:101390001496ED91FC9140E466E0C701099540E0A8
:1013A000B801C7010E94050940E0B801C7010E94C9
:1013B000FD0841E0B801C7010E9405094C81486B56
:1013C000B801C7010E94F50840E4B801C7010E94B6
:1013D000F50841E0B801C7010E94FD082E813F8158
:1013E000205C3F4FD8011496ED91FC9140E466E0FB
:1013F000C701099540E0B801C7010E94050923CF44
:10140000B6E49B1609F47BC0E7E49E1609F47BC0A2
:10141000FBE39F1224C0D60111969C91119713965D
:101420008C9138E0390F813031F0833011F0392F51
:1014300002C0392F985021E04B81491708F420E071
:1014400041E0391708F040E091E05A81351708F47F
:1014500090E0322F342B932379F4242369F481E034
:10146000DF91CF911F910F91FF90EF90DF90CF9080
:10147000BF90AF909F900895F601128100E0F12C8B
:10148000843048F490E0FC01E45DFE4FF080885D1C
:101490009E4FDC010C9117FF04C0B601CE010E94E3
:1014A0003705F60180818F0D80838181800F8183D4
:1014B000110F89F7D4CFB601CE010E943705CFCFE7
:1014C000CE010E944D05882359F2EE81FF818D8166
:1014D0008E0F9F2F911D11928E179F07E1F7BFCF9F
:1014E000D6011C928A8111968C9311978D8181501F
:1014F00012968C9312978B8113968C93B0CF8D811B
:10150000F6018083ACCF8981D6018C93A8CF0F934D
:10151000FC010150040F84A996A9941788F00817BC
:1015200010F4041778F42150260F83A995A9961773
:1015300058F0281760F481E0261720F40F910895E1
:10154000081778F780E0FACF2817A8F7FBCF81E0DB
:10155000F5CFFF920F931F93CF93DF93D82F162FC2
:10156000F42EC22F022F242F462F682F86E893E0F7
:101570000E94870A8823E9F04F2D612F8D2F0E944A
:1015800007064C2F612F8D2F0E947B068FEF8F0D4A
:101590004C2F612F8D0F0E947B066FEF6C0F610F38
:1015A0004F2D8D2FDF91CF911F910F91FF900C94B4
:1015B0000706DF91CF911F910F91FF900895FF9241
:1015C0000F931F93CF93DF93C82FD62F142FF22E94
:1015D000022F242F462F682F86E893E00E94870A67
:1015E000882359F02F2D412F6D2F8C2FDF91CF9114
:1015F0001F910F91FF900C946506DF91CF911F9181
:101600000F91FF9008955F926F927F928F929F92B9
:10161000AF92BF92CF92DF92EF92FF920F931F9300
:10162000CF93DF93EC01C62E142FD22EEC80FD80D9
:10163000C7010E942307082F8C819D810E942607E5
:10164000982EAA24AA94013011F48FE0A82E8C8140
:101650009D810E941F07082F8C819D810E941B077E
:10166000B82E8C819D810E943C0720E62D1570F4D8
:10167000009761F0E80EF91E01E6BD14C0F4188A67
:101680001B8A1C8A198A1A8A80E05AC08C819D8123
:101690000E943F07E0E4ED1530F4009721F0E80EDA
:1016A000F91E01E4EACFF1E1EF0EF11CE6CFB0162E
:1016B00030F3892D90E0F70124912F3F39F4FFEFAB
:1016C000EF1AFF0AB016D9F20F5FF5CFD0125FC044
:1016D0008C819D810E94230797012F5F3F4FF70167
:1016E000882319F0823009F03BC084918B8BF9017B
:1016F00024912C8BF7013396E491E88BF701349613
:10170000E491E98BF7013596E491EA8BE114F10459
:1017100009F4BACF8C819D810E942607A82EDB8810
:10172000BC888989C80E1B198A89181B0B2D2D2D81
:10173000412F6C2DCE010E94870A811131C088890A
:10174000DF91CF911F910F91FF90EF90DF90CF909D
:10175000BF90AF909F908F907F906F905F90089513
:101760008491982F9F7092509A8B82958F70898B5D
:10177000F9012491822F8F708C8B22952F702B8BE7
:10178000F7013296E491E295EF70E88BBFCF329685
:10179000E491EA21E80FF92FF11DEE0EFF1E92CF22
:1017A000EA0CF11CF7E0DF0ED694D694D694012F04
:1017B0000B0D4E012CE1820E911C6D2C712C10171B
:1017C00009F4BDCF5C2C570112C0F50184916A81E8
:1017D0007B815C8E1D8F1F8E8E8F94014BE3CE011B
:1017E0000E946A05FFEFAF1ABF0A28E0520E8A2D49
:1017F0008E198D1550F3E60CF71C1F5FE0CFE4EE59
:10180000F1E024E044E0628180810C94DF0A0F93D0
:101810001F93CF93DF93CEEED1E010E000E08091F4
:101820001001909111010817190750F424E044E0C9
:101830006A8188810E94A90A0F5F1F4F2496EFCF0B
:10184000DF91CF911F910F910895DF92EF92FF9258
:101850000F931F93CF93DF93EC01D62E1CAD0BADEE
:101860007C0184E0E80EF11CE98DFA8DC701099531
:10187000412F480F2D2D602FC7010E94030B9BADF8
:10188000890F8BAF81E090E0DF91CF911F910F9195
:10189000FF90EF90DF90089590E080E00895FC01C4
:1018A00080819181009711F00C94A7130895CF9235
:1018B000DF92EF92FF929CE7C92ED12CE12CF12C04
:1018C0000E94C111A70196010E9443126E5F7F4FD3
:1018D0008F4F9F4F7093E5016093E401637077270A
:1018E000672B71F78CE3C82ED12CE12CF12C0E94D0
:1018F000C111A70196010E9443126E5F7F4F8F4F67
:101900009F4F7093E7016093E60163707727672B21
:1019100071F7FF90EF90DF90CF900895EF92FF92D4
:101920000F931F93CF93DF93EC017B018A01888192
:101930009981009729F02A813B812417350788F483
:10194000B8016F5F7F4F0E943014009791F0998328
:1019500088831B830A832C813D81232B11F4FC0196
:1019600010821D830C83B701888199810E94F6142F
:101970000CC088819981009711F00E94A7131982E9
:1019800018821D821C821B821A82CE01DF91CF91A8
:101990001F910F91FF90EF900895FB01019000209F
:1019A000E9F73197AF01461B570B0C948E0CEF9261
:1019B000FF920F931F93CF93DF93CDB7DEB72A9794
:1019C0000FB6F894DEBF0FBECDBFF62EE42EFC019D
:1019D000048115810115110509F058C01982809103
:1019E0008A0390918B038856904099F188E690E0A5
:1019F00090938B0380938A0380919D0381115BC038
:101A0000EDE6F0E0E491E0939E03E4E7F0E0E4919A
:101A1000E0939F0320919E03022E000C330B8091D4
:101A20009F03281B310987FD33958091A0038034E3
:101A300041F0289F9001112486E0369527958A95DC
:101A4000E1F72093A10389E197E090939C038093B1
:101A50009B03E0919B03F0919C0386E893E009953A
:101A6000E80E8E010F5F1F4FF80121918F012111A8
:101A700034C02A960FB6F894DEBF0FBECDBFDF91FB
:101A8000CF911F910F91FF90EF90089509301105AC
:101A900010F009E010E0FC0160817181A801CE0125
:101AA00001960E94FD14E1E0F0E0EC0FFD1FE00F55
:101AB000F11F108294CF813041F4E7E7F0E0E49128
:101AC000E0939E03E8E7F0E0A2CFE5E7F0E0E491E1
:101AD000E0939E03E6E7F0E09ACF4E2D6F2D86E867
:101AE00093E00E94030BF80EBFCF1F920F920FB628
:101AF0000F9211242F933F938F939F93AF93BF9394
:101B00008091DC019091DD01A091DE01B091DF01B7
:101B10003091DB0123E0230F2D3758F50196A11DED
:101B2000B11D2093DB018093DC019093DD01A09334
:101B3000DE01B093DF018091E0019091E101A0917D
:101B4000E201B091E3010196A11DB11D8093E00176
:101B50009093E101A093E201B093E301BF91AF91B3
:101B60009F918F913F912F910F900FBE0F901F90DB
:101B7000189526E8230F0296A11DB11DD2CFCF9351
:101B8000DF93CDB7DEB76D970FB6F894DEBF0FBE0B
:101B9000CDBF789484B5826084BD84B5816084BDF6
:101BA00085B5826085BD85B5816085BD80916E00FB
:101BB000816080936E00109281008091810082602C
:101BC0008093810080918100816080938100809169
:101BD00080008160809380008091B1008460809358
:101BE000B1008091B00081608093B00080917A0054
:101BF000846080937A0080917A00826080937A007A
:101C000080917A00816080937A0080917A00806868
:101C100080937A001092C10060E082E00E949404F8
:101C200060E083E00E94940460E08CE00E949404F1
:101C300060E08DE00E94940480E480937C008091B9
:101C40007A00806480937A0080917A0086FDFCCFD0
:101C50008091780060917900762F682F072E000C14
:101C6000880B990B611571058105910511F00E9492
:101C7000101280919103883249F58FEF8093A6036B
:101C800052E0C52ED12C63E0462E512C612C712CD4
:101C90009E012F5F3F4F790143E0242E312C80912C
:101CA0008003909181038130910509F48FC0A8F0E1
:101CB0008230910509F4CEC0039709F4D4C120E025
:101CC00030E0232B61F30E940000E6CF823011F454
:101CD00083E0D4CF8130A1F6D1CF30921101209290
:101CE00010010E94C1112CE730E040E050E00E945A
:101CF00043128B019C010E5F1F4F2F4F3F4FC801B6
:101D000064E070E00E94DD12892B59F70E94C11136
:101D10002CE330E040E050E00E9443124B015C01B4
:101D200032E0830E911CA11CB11CC40164E070E080
:101D30000E94DD12892B51F71093EF010093EE0101
:101D40009092F1018092F0010EEE11E0AA24A3948A
:101D5000B12C8091100190911101A816B90668F577
:101D60000E94C111A30192010E94431261157105E5
:101D700081F4F80180819181049795838483828125
:101D8000938197838683FFEFAF1ABF0A0C5F1F4FC3
:101D9000E0CF6130710529F4F801808191810496CA
:101DA000ECCF6230710579F7F801808191819583DC
:101DB0008483828193810497E4CF0E94570C21E0B1
:101DC00030E0309381032093800379CF82E00E943A
:101DD0003D044C019093ED018093EC0183E00E945F
:101DE0003D045C019093EB018093EA018DE00E9439
:101DF0003D048C019093E9018093E8018CE00E94FE
:101E00003D04892821F0D0928103C0928003AB2841
:101E100021F0D0928103C0928003892B21F0D092CF
:101E20008103C0928003012B21F0D0928103C092E4
:101E300080030E94D4050E94070C0E94FF0B65E0FE
:101E400070E080E090E00E94EA040E94DF068111C9
:101E5000F2CF35CFA091EE01B091EF016091F0018A
:101E60007091F10120911001309111014091E40134
:101E70005091E501A417B50739F44091E60150915E
:101E8000E70164177507C1F0EEEEF1E041E050E0C4
:101E90004217530708F087C004811581A017B107C6
:101EA00039F4068117816017710711F483E090E01F
:101EB0004F5F5F4F3496ECCF2E5F3F4F3093110151
:101EC0002093100180917E0390917F03019690935F
:101ED0007F0380937E030E94570C8091EE019091C6
:101EE000EF0101978F37910538F48091F0019091BF
:101EF000F1010197CF9720F0309281032092800367
:101F000082E00E943D044C019093ED018093EC012E
:101F100083E00E943D048C019093EB018093EA01E1
:101F20008DE00E943D045C019093E9018093E801FB
:101F30008CE00E943D048928D9F120910E01309156
:101F40000F012130310509F44AC110920F0110929E
:101F50000E01012BD9F5892BD9F180910E019091B9
:101F60000F01039709F43FC1D0920F01C0920E01F7
:101F70008091100190911101FC01EE0FFF1FEE0FF7
:101F8000FF1FE251FE4F01973497181619066CF5A2
:101F9000DF0114974D915D916D917C914083518348
:101FA00062837383F0CF909381038093800395CFF6
:101FB000012B89F220910E0130910F01232B31F07A
:101FC000E1E0F0E0F0930F01E0930E01892B61F660
:101FD000AB2871F280910E0190910F01029741F2AE
:101FE00030920F0120920E01C3CF80910E0190918B
:101FF0000F010097D1F48091EE019091EF010497C9
:102000009093EF018093EE010E94D4050E94070C8B
:102010000E94FF0B65E070E080E090E00E94EA041F
:102020000E94DF068111F2CF4ACE8130910531F452
:102030008091EE019091EF010496E2CF82309105FC
:1020400051F48091F0019091F10104969093F10187
:102050008093F001D9CF0397B9F68091F001909168
:10206000F1010497F3CF0E94D4051A8219821C82D1
:102070001B821E821D8260E371E0C7010E94CD0CAD
:1020800049E150E06CE270E0C7010E94D70CC70143
:102090000E944F0C1A8219821C821B821E821D8292
:1020A0006AE371E0C7010E94CD0C43E250E06CE2AC
:1020B00070E0C7010E94D70CC7010E944F0C198E17
:1020C000188E1B8E1A8E1D8E1C8E61E471E0CE015F
:1020D00048960E94CD0C80917E0390917F031B8ACD
:1020E0001A8A1D8A1C8A1F8A1E8A4AE0B7010E942A
:1020F0001912F70101900020E9F73197AF014E194D
:102100005F09B701CE0142960E948E0C888D998D91
:10211000009709F453C06A897B896115710509F438
:102120004BC04A8D5B8D2E893F894217530708F4B7
:1021300043C00E94F6148E899F899D8F8C8F1F8AC1
:102140001E8ACE0142960E944F0C1A8219821C826E
:102150001B821E821D82688D798D6115710529F0A3
:102160004C8D5D8DC7010E948E0C43E250E06AE405
:1021700070E0C7010E94D70CC7010E944F0CCE012E
:1021800048960E944F0C65E070E080E090E00E946D
:10219000EA040E94DF06811168CF60ED77E080E0FD
:1021A00090E00E94EA041092810310928003109242
:1021B0007F0310927E0383CD0E94A7138A899B8997
:1021C000998F888F8C899D899B8F8A8F8E899F8913
:1021D0009D8F8C8F1B8A1A8A1D8A1C8AB0CF012B77
:1021E00009F0EECEF3CEAB2809F0FACEC1CE1092B4
:1021F00085031092840380E291E09093830380939F
:1022000082031092BD031092BE031092BF0310927E
:102210008B0310928A0310928D0310928C031092FC
:102220008F0381E080938E0382E28093900310926B
:10223000950310929403E9EAF3E08FEF819393E022
:10224000E73BF907D9F791E09093A60329E137E03E
:1022500030939C0320939B0390939D0310929E03C5
:1022600010929F0390E49093A0031092A1032CE19D
:1022700035E03093B8032093B70328E031E0309382
:1022800089032093880398E09093AE0399E090939C
:10229000AF039AE09093B0039BE09093B10394E076
:1022A0009093B20395E09093B30396E09093B403B8
:1022B00097E09093B50392E19093AD039EE09093E5
:1022C000AB039FE09093AC0391E19093AA0390E15C
:1022D0009093B6038093A9030E946E0580E291E07B
:1022E000909383038093820308958F929F92AF927D
:1022F000BF92CF92DF92EF92FF92CF93DF93EC01E8
:10230000688179818A819B816115710581059105BB
:1023100021F464E279ED8BE597E02DE133EF41E0C4
:1023200050E00E94431249015A019B01AC01A7EA07
:10233000B1E40E9462126B017C01ACEEB4EFA50126
:1023400094010E947012C60ED71EE81EF91EF7FEF9
:1023500006C081E0C81AD108E10880E8F80AC882FE
:10236000D982EA82FB82C701B6019F77DF91CF91C4
:10237000FF90EF90DF90CF90BF90AF909F908F90A5
:1023800008958F929F92AF92BF92CF92DF92EF9279
:10239000FF9260911201709113018091140190914C
:1023A0001501611571058105910521F464E279ED4E
:1023B0008BE597E02DE133EF41E050E00E944312BE
:1023C00049015A019B01AC01A7EAB1E40E946212E3
:1023D0006B017C01ACEEB4EFA50194010E94701278
:1023E000C60ED71EE81EF91EF7FE06C081E0C81A09
:1023F000D108E10880E8F80AC0921201D0921301D6
:10240000E0921401F0921501C701B6019F77FF9089
:10241000EF90DF90CF90BF90AF909F908F900895F6
:10242000609312017093130180931401909315012E
:102430000895BB27FB015527AA27880F991FAA1FBC
:10244000A41710F0A41B83955051B9F7A05DAA33CF
:1024500008F0A95DA193009779F7B111B19311929A
:10246000CB010C943312DC01FC01672F71917723AF
:10247000E1F7329704C07C916D9370836291AE173F
:10248000BF07C8F30895052E97FB1EF400940E9421
:102490005A1257FD07D00E94AC1207FC03D04EF42D
:1024A0000C945A1250954095309521953F4F4F4FBF
:1024B0005F4F089590958095709561957F4F8F4FF0
:1024C0009F4F08950E94CE12A59F900DB49F900D2E
:1024D000A49F800D911D11240895B7FF0C946212E2
:1024E0000E946212821B930B08952F923F924F928B
:1024F0005F926F927F928F929F92AF92BF92CF9294
:10250000DF92EF92FF920F931F93CF93DF93CDB79C
:10251000DEB7CA1BDB0B0FB6F894DEBF0FBECDBF14
:1025200009942A88398848885F846E847D848C84E5
:102530009B84AA84B984C884DF80EE80FD800C81EE
:102540001B81AA81B981CE0FD11D0FB6F894DEBFD1
:102550000FBECDBFED010895A1E21A2EAA1BBB1B31
:10256000FD010DC0AA1FBB1FEE1FFF1FA217B3075F
:10257000E407F50720F0A21BB30BE40BF50B661F75
:10258000771F881F991F1A9469F760957095809539
:1025900090959B01AC01BD01CF010895A29FB001B0
:1025A000B39FC001A39F700D811D1124911DB29F87
:1025B000700D811D1124911D089597FB072E16F4AF
:1025C000009407D077FD09D00E94F71207FC05D0D0
:1025D0003EF4909581959F4F0895709561957F4F3A
:1025E0000895EE0FFF1F0590F491E02D0994AA1BAA
:1025F000BB1B51E107C0AA1FBB1FA617B70710F0EE
:10260000A61BB70B881F991F5A95A9F7809590951F
:10261000BC01CD0108950F931F93CF93DF938230B8
:10262000910510F482E090E0E091C203F091C303C1
:1026300030E020E0B0E0A0E0309799F421153105BA
:1026400009F44AC0281B390B24303105D8F58A819A
:102650009B816115710589F1FB0193838283FE01E2
:1026600011C0408151810281138148175907E0F060
:102670004817590799F4109761F012960C93129726
:1026800013961C933296CF01DF91CF911F910F913A
:1026900008950093C2031093C303F4CF21153105AD
:1026A00051F04217530738F0A901DB019A01BD012F
:1026B000DF01F801C1CFEF01F9CF9093C3038093FD
:1026C000C203CDCFFE01E20FF31F819391932250FD
:1026D000310939832883D7CF2091C0033091C103BA
:1026E000232B41F420911801309119013093C1033B
:1026F0002093C00320911601309117012115310557
:1027000041F42DB73EB740911A0150911B01241B93
:10271000350BE091C003F091C103E217F307A0F479
:102720002E1B3F0B2817390778F0AC014E5F5F4F27
:102730002417350748F04E0F5F1F5093C103409395
:10274000C003819391939FCFF0E0E0E09CCFCF93C3
:10275000DF930097E9F0FC01329713821282A09177
:10276000C203B091C303ED0130E020E01097A1F463
:1027700020813181820F931F2091C0033091C103CA
:102780002817390709F061C0F093C103E093C00333
:10279000DF91CF910895EA01CE17DF07E8F54A816E
:1027A0005B819E0141155105B1F7E901FB83EA8385
:1027B00049915991C40FD51FEC17FD0761F4808131
:1027C00091810296840F951FE90199838883828104
:1027D00093819B838A83F0E0E0E012968D919C9137
:1027E00013970097B9F52D913C911197CD01029661
:1027F000820F931F2091C0033091C103281739071E
:1028000039F6309751F51092C3031092C203B0937A
:10281000C103A093C003BCCFD383C2834081518145
:10282000840F951FC817D90761F44E5F5F4F8881E9
:102830009981480F591F518340838A819B819383DB
:1028400082832115310509F0B0CFF093C303E093E3
:10285000C2039ECFFD01DC01C0CF13821282D7CF0D
:10286000B0E0A0E0E6E3F4E10C9477128C0100976D
:1028700051F4CB010E940B138C01C801CDB7DEB718
:10288000E0E10C949312FC01E60FF71F9C0122502B
:102890003109E217F30708F49DC0D901CD91DC910D
:1028A0001197C617D70798F0C530D10530F3CE0180
:1028B00004978617970708F3C61BD70B2297C19377
:1028C000D1936D937C93CF010E94A713D6CF5B0168
:1028D000AC1ABD0A4C018C0E9D1EA091C203B09192
:1028E000C303512C412CF12CE12C109731F5809130
:1028F000C0039091C1038815990509F05CC0461684
:10290000570608F058C08091160190911701009762
:1029100041F48DB79EB740911A0150911B01841B61
:10292000950BE817F90708F055C0F093C103E09341
:10293000C003F90171836083A0CF8D919C911197A1
:1029400012966C90129713967C901397A815B90560
:1029500059F56C0142E0C40ED11CCA14DB0420F10D
:10296000AC014A195B09DA011296159780F0628270
:10297000738251834083D9016D937C93E114F104F8
:1029800071F0D7011396FC93EE93129776CF2296AF
:102990008C0F9D1FF90191838083F301EFCFF0939A
:1029A000C303E093C20369CF4816590608F42C010B
:1029B0007D01D3019ACFCB010E940B137C010097BC
:1029C00049F0AE01B8010E94ED14C8010E94A7139E
:1029D000870153CF10E000E050CFFB01DC0102C0C3
:1029E00001900D9241505040D8F70895FB01DC0151
:1029F00001900D920020E1F70895FB01DC014150A8
:102A0000504048F001900D920020C9F701C01D927E
:0C2A100041505040E0F70895F894FFCFCB
:102A1C0008400000008042010D090001C0070100C0
:102A2C000300010000000000C4038000000000004F
:102A3C00250CE7034C0CE603000100FF0100FF002E
:102A4C0047616D65204F7665720053636F72653D0B
:022A5C00200058
:00000001FF
